S0110000726567756C61746F722E737265633E
S113000045C0000060C000005EC000005CC000008D
S11300105AC0000058C0000056C0000054C0000080
S113002052C0000050C000004EC000004CC0000090
S11300304AC0000048C0000046C0000044C00000A0
S1130040C2C0000040C00000C0C100003CC00000AD
S11300503AC0000038C0000036C0000034C00000C0
S113006032C0000030C000002EC000002CC00000D0
S11300702AC0000028C0000026C0000024C00000E0
S113008022C0000020C000001EC0000011241FBEBA
S1130090CFEFD0E1DEBFCDBF11E0A0E0B1E0E2E3FD
S11300A0F8E000E00BBF02C007900D92AE31B1073B
S11300B0D9F721E0AEE1B1E001C01D92AC33B20743
S11300C0E1F7C1D1B4C39CCF5F9BFECF8CB108953F
S11300D087E083BF12BE87B7816087BF7894089595
S11300E08B9A1BB888E98AB986E0809395001092B0
S11300F0900084E389B90895C0988FB9779BFECFA7
S1130100C09A08959099FECF88E3F6DF9099FECFC8
S1130110C0981FB8779BFECF8FB190E0982F8827A7
S11301201FB8779BFECF2FB1C09A822B089587B357
S1130130876087BB88B3836088BB8FE78DB9C2981B
S11301408FE19EE40197F1F700C00000C29A80E2BB
S1130150D3DF8CE0D1DF80E1CFDF80E4CDDF909B83
S1130160FECF0895BD9A83E88FBD89E08EBD1DBC86
S11301701CBC0895AC0190E00BC021E0290FFA01EA
S1130180E90FF11D90819CB9922F5D9BF6CF922FC0
S1130190FA01E90FF11D8081882321F05D9BEDCFE9
S11301A0292FF5CF5D9904C08DE08CB95D9BFDCFFF
S11301B05D9904C08AE08CB95D9BFDCF08951AD285
S11301C06ABD1BBC08951F920F920FB60F921124A3
S11301D00BB60F924F925F926F927F928F929F9283
S11301E0AF92BF92CF92DF92EF92FF922F933F9301
S11301F04F935F936F937F938F939F93AF93BF932B
S1130200EF93FF93F894EBE2F1E08081618170E079
S1130210680F711D8281680F711D8381680F711DC4
S11302208481680F711D072E000C880B990B10D266
S113023060931F0170932001809321019093220108
S113024061DFBC0180E090E001D2609327017093EC
S113025028018093290190932A0180E191E08ADFAB
S113026060912701709128018091290190912A01C0
S1130270BCD1CB017FDF8090340190903501A090F8
S11302803601B09037018092300190923101A092F2
S11302903201B0923301209127013091280140911D
S11302A0290150912A0160911F01709120018091D0
S11302B0210190912201CCD06B017C016093340127
S11302C07093350180933601909337012091080192
S11302D03091090140910A0150910B0160E070E0F6
S11302E080E89FE31AD1A70196013ED229E23CE5BA
S11302F04FE05DE339D2209100013091010140913A
S1130300020150910301A5D02B013C01609300012F
S1130310709301018093020190930301A50194015C
S1130320C701B60195D02091040130910501409197
S113033006015091070118D229E23CE54FE05DE344
S1130340ECD04B015C0160932301709324018093F2
S113035025019093260120910C0130910D014091CB
S11303600E0150910F01C701B601FED1A301920104
S113037070D0A50194016DD0609338017093390158
S113038080933A0190933B011ADF7894FF91EF91A7
S1130390BF91AF919F918F917F916F915F914F9199
S11303A03F912F91FF90EF90DF90CF90BF90AF904F
S11303B09F908F907F906F905F904F900F900BBEA7
S11303C00F900FBE0F901F9018951F920F920FB6AB
S11303D00F9211240BB60F922F933F934F935F9379
S11303E06F937F938F939F93AF93BF93CF93DF9339
S11303F0EF93FF93F89480911E01843011F41092CE
S11304001E01C0911E01D0E05FDEC55DDE4F888312
S113041080911E018F5F80931E017894FF91EF916C
S1130420DF91CF91BF91AF919F918F917F916F9108
S11304305F914F913F912F910F900BBE0F900FBE84
S11304400F901F90189573DE4BDE8CDE41DEFFCFDC
S11304505058BB27AA270ED04DC13ED130F043D10E
S113046020F031F49F3F11F41EF433C10EF4E095F3
S1130470E7FB29C1E92F4FD180F3BA17620773074D
S11304808407950718F071F49EF567C10EF4E095A2
S11304900B2EBA2FA02D0B01B90190010C01CA013A
S11304A0A0011124FF27591B99F0593F50F4503EE5
S11304B068F11A16F040A22F232F342F4427585FD7
S11304C0F3CF469537952795A795F0405395C9F7EF
S11304D07EF41F16BA0B620B730B840BBAF09150A7
S11304E0A1F0FF0FBB1F661F771F881FC2F70EC046
S11304F0BA0F621F731F841F48F487957795679519
S1130500B795F7959E3F08F0B3CF9395880F08F001
S11305109927EE0F9795879508950CD0EBC0E3D0FB
S113052040F0DAD030F021F45F3F19F0CCC0511123
S113053015C1CFC0F0D098F39923C9F35523B1F373
S1130540951B550BBB27AA2762177307840738F03E
S11305509F5F5F4F220F331F441FAA1FA9F333D09D
S11305600E2E3AF0E0E830D091505040E695001C51
S1130570CAF729D0FE2F27D0660F771F881FBB1F0D
S1130580261737074807AB07B0E809F0BB0B802DE7
S1130590BF01FF2793585F4F2AF09E3F510568F033
S11305A092C0DCC05F3FECF3983EDCF38695779510
S11305B06795B795F7959F5FC9F7880F911D969535
S11305C0879597F90895E1E0660F771F881FBB1F91
S11305D0621773078407BA0720F0621B730B840B3E
S11305E0BA0BEE1F88F7E095089504D06894B11112
S11305F0B5C0089598D088F09F5790F0B92F9927E7
S1130600B751A0F0D1F0660F771F881F991F1AF019
S1130610BA95C9F712C0B13081F09FD0B1E0089506
S11306209CC0672F782F8827B85F39F0B93FCCF387
S1130630869577956795B395D9F73EF4909580950F
S1130640709561957F4F8F4F9F4F0895E89409C02F
S113065097FB3EF490958095709561957F4F8F4FF1
S11306609F4F9923A9F0F92F96E9BB279395F69507
S1130670879577956795B795F111F8CFFAF4BB0F85
S113068011F460FF1BC06F5F7F4F8F4F9F4F16C0E9
S1130690882311F096E911C0772321F09EE8872F73
S11306A0762F05C0662371F096E8862F70E060E02F
S11306B02AF09A95660F771F881FDAF7880F9695A8
S11306C0879597F9089597F99F6780E870E060E04F
S11306D008959FEF80EC089500240A9416161706D7
S11306E018060906089500240A941216130614061F
S11306F005060895092E0394000C11F4882352F082
S1130700BB0F40F4BF2B11F460FF04C06F5F7F4F39
S11307108F4F9F4F089557FD9058440F551F59F020
S11307205F3F71F04795880F97FB991F61F09F3FDA
S113073079F087950895121613061406551FF2CF03
S11307404695F1DF08C0161617061806991FF1CF53
S113075086957105610508940895E894BB2766277A
S11307607727CB0197F908950BD0C4CFB5DF28F0D4
S1130770BADF18F0952309F0A6CFABCF1124EECF42
S1130780CADFA0F3959FD1F3950F50E0551F629FE8
S1130790F001729FBB27F00DB11D639FAA27F00DD6
S11307A0B11DAA1F649F6627B00DA11D661F829FFD
S11307B02227B00DA11D621F739FB00DA11D621FE2
S11307C0839FA00D611D221F749F3327A00D611DFF
S11307D0231F849F600D211D822F762F6A2F1124E1
S11307E09F5750408AF0E1F088234AF0EE0FFF1F34
S11307F0BB1F661F771F881F91505040A9F79E3F6B
S1130800510570F060CFAACF5F3FECF3983EDCF364
S1130810869577956795B795F795E7959F5FC1F7A7
S1130820FE2B880F911D9695879597F90895F89456
S1050830FFCFF4
S113083295BFD6330000203FCDCC0C3F0AD7233DD1
S1110842D2E5ECEFE5F0E0F2F3F0E03A00006E
S9030000FC
