:1000000045C0000060C000005EC000005CC0000091
:100010005AC0000058C0000056C0000054C0000084
:1000200052C0000050C000004EC000004CC0000094
:100030004AC0000048C0000046C0000044C00000A4
:1000400084C0000040C000008CC000003CC0000024
:100050003AC0000038C0000036C0000034C00000C4
:1000600032C0000030C000002EC000002CC00000D4
:100070002AC0000028C0000026C0000024C00000E4
:1000800022C0000020C000001EC0000011241FBEBE
:10009000CFEFD0E1DEBFCDBF11E0A0E0B1E0E2E301
:1000A000F2E000E00BBF02C007900D92A030B10754
:1000B000D9F721E0A0E0B1E001C01D92A230B20763
:1000C000E1F7B0D0B4C09CCF5F9BFECF8CB1089558
:1000D00087E083BF12BE87B7816087BF7894089599
:1000E0008B9A1BB888E98AB986E0809395001092B4
:1000F000900084E389B90895C0988FB9779BFECFAB
:10010000C09A089587B3876087BB88B3836088BB34
:100110008FE78DB9C2988FE19EE40197F1F700C097
:100120000000C29A80E2E8DF8CE0E6DF80E1E4DFF5
:1001300080E4E2DF909BFECF0895BD9A83E88FBDF7
:1001400089E08EBD1DBC1CBC08951F920F920FB696
:100150000F921124F89478940F900FBE0F901F9077
:1001600018951F920F920FB60F9211240BB60F9293
:10017000CF92DF92EF92FF920F931F932F933F93B3
:100180004F935F936F937F938F939F93AF93BF939F
:10019000EF93FF93CF93DF93CDB7DEB72597DEBF05
:1001A000CDBFF8948E010F5F1F4F6E0186E0C80E21
:1001B000D11C780189DFF70181937F01EC15FD05E2
:1001C000C9F78091000190910101F80121918F01FF
:1001D000820F911DEC15FD05C1F7909301018093ED
:1001E000000178940F900F900F900F900F90DF9177
:1001F000CF91FF91EF91BF91AF919F918F917F919F
:100200006F915F914F913F912F911F910F91FF90AF
:10021000EF90DF90CF900F900BBE0F900FBE0F901E
:100220001F9018956FDF5CDF88DF52DFFFCFF894F7
:02023000FFCFFE
:00000001FF
