S0110000726567756C61746F722E737265633E
S113000045C0000060C000005EC000005CC000008D
S11300105AC0000058C0000056C0000054C0000080
S113002052C0000050C000004EC000004CC0000090
S11300304AC0000048C0000046C0000044C00000A0
S113004047C0000040C000004FC000003CC000009A
S11300503AC0000038C0000036C0000034C00000C0
S113006032C0000030C000002EC000002CC00000D0
S11300702AC0000028C0000026C0000024C00000E0
S113008022C0000020C000001EC0000011241FBEBA
S1130090CFEFD0E1DEBFCDBF11E0A0E0B1E0EEECE8
S11300A0F1E000E00BBF02C007900D92A030B10751
S11300B0D9F721E0A0E0B1E001C01D92A730B2075A
S11300C0E1F77FD082C09CCF5F9BFECF8CB10895B7
S11300D01F920F920FB60F921124F89478940F90F8
S11300E00FBE0F901F9018951F920F920FB60F928C
S11300F011240BB60F92EF92FF920F931F932F933D
S11301003F934F935F936F937F938F939F93AF939B
S1130110BF93CF93DF93EF93FF93F894C0E0D1E0C4
S11301200F2EF5E0EF2EF1E0FF2EF02D8E01CCDF47
S1130130F80181938F01EE15FF05C9F78091050140
S1130140909106012881820F911D1992CE15DF0529
S1130150C9F790930601809305017894FF91EF917C
S1130160DF91CF91BF91AF919F918F917F916F91CB
S11301705F914F913F912F911F910F91FF90EF90BD
S11301800F900BBE0F900FBE0F901F90189587E035
S113019083BF12BE87B7816087BF789408951BB868
S11301A088E98AB986E0809395001092900084E3F0
S11301B089B9089583E88FBD89E08EBD1DBC1CBC40
S11101C00895EDDFF7DFE3DFFFCFF894FFCF04
S9030000FC
